{
  "contractName": "GameItems",
  "abi": [
    {
      "inputs": [],
      "stateMutability": "nonpayable",
      "type": "constructor"
    },
    {
      "anonymous": false,
      "inputs": [
        {
          "indexed": true,
          "internalType": "address",
          "name": "account",
          "type": "address"
        },
        {
          "indexed": true,
          "internalType": "address",
          "name": "operator",
          "type": "address"
        },
        {
          "indexed": false,
          "internalType": "bool",
          "name": "approved",
          "type": "bool"
        }
      ],
      "name": "ApprovalForAll",
      "type": "event"
    },
    {
      "anonymous": false,
      "inputs": [
        {
          "indexed": false,
          "internalType": "address",
          "name": "_buyer",
          "type": "address"
        },
        {
          "indexed": false,
          "internalType": "uint256",
          "name": "_amount",
          "type": "uint256"
        }
      ],
      "name": "BuyGT",
      "type": "event"
    },
    {
      "anonymous": false,
      "inputs": [
        {
          "indexed": false,
          "internalType": "address",
          "name": "_buyer",
          "type": "address"
        },
        {
          "indexed": false,
          "internalType": "uint256",
          "name": "_id",
          "type": "uint256"
        }
      ],
      "name": "BuyNFT",
      "type": "event"
    },
    {
      "anonymous": false,
      "inputs": [
        {
          "indexed": true,
          "internalType": "address",
          "name": "previousOwner",
          "type": "address"
        },
        {
          "indexed": true,
          "internalType": "address",
          "name": "newOwner",
          "type": "address"
        }
      ],
      "name": "OwnershipTransferred",
      "type": "event"
    },
    {
      "anonymous": false,
      "inputs": [
        {
          "indexed": true,
          "internalType": "address",
          "name": "operator",
          "type": "address"
        },
        {
          "indexed": true,
          "internalType": "address",
          "name": "from",
          "type": "address"
        },
        {
          "indexed": true,
          "internalType": "address",
          "name": "to",
          "type": "address"
        },
        {
          "indexed": false,
          "internalType": "uint256[]",
          "name": "ids",
          "type": "uint256[]"
        },
        {
          "indexed": false,
          "internalType": "uint256[]",
          "name": "values",
          "type": "uint256[]"
        }
      ],
      "name": "TransferBatch",
      "type": "event"
    },
    {
      "anonymous": false,
      "inputs": [
        {
          "indexed": true,
          "internalType": "address",
          "name": "operator",
          "type": "address"
        },
        {
          "indexed": true,
          "internalType": "address",
          "name": "from",
          "type": "address"
        },
        {
          "indexed": true,
          "internalType": "address",
          "name": "to",
          "type": "address"
        },
        {
          "indexed": false,
          "internalType": "uint256",
          "name": "id",
          "type": "uint256"
        },
        {
          "indexed": false,
          "internalType": "uint256",
          "name": "value",
          "type": "uint256"
        }
      ],
      "name": "TransferSingle",
      "type": "event"
    },
    {
      "anonymous": false,
      "inputs": [
        {
          "indexed": false,
          "internalType": "string",
          "name": "value",
          "type": "string"
        },
        {
          "indexed": true,
          "internalType": "uint256",
          "name": "id",
          "type": "uint256"
        }
      ],
      "name": "URI",
      "type": "event"
    },
    {
      "inputs": [],
      "name": "GT",
      "outputs": [
        {
          "internalType": "uint256",
          "name": "",
          "type": "uint256"
        }
      ],
      "stateMutability": "view",
      "type": "function"
    },
    {
      "inputs": [
        {
          "internalType": "address",
          "name": "account",
          "type": "address"
        },
        {
          "internalType": "uint256",
          "name": "id",
          "type": "uint256"
        }
      ],
      "name": "balanceOf",
      "outputs": [
        {
          "internalType": "uint256",
          "name": "",
          "type": "uint256"
        }
      ],
      "stateMutability": "view",
      "type": "function"
    },
    {
      "inputs": [
        {
          "internalType": "address[]",
          "name": "accounts",
          "type": "address[]"
        },
        {
          "internalType": "uint256[]",
          "name": "ids",
          "type": "uint256[]"
        }
      ],
      "name": "balanceOfBatch",
      "outputs": [
        {
          "internalType": "uint256[]",
          "name": "",
          "type": "uint256[]"
        }
      ],
      "stateMutability": "view",
      "type": "function"
    },
    {
      "inputs": [],
      "name": "decimal",
      "outputs": [
        {
          "internalType": "uint256",
          "name": "",
          "type": "uint256"
        }
      ],
      "stateMutability": "view",
      "type": "function"
    },
    {
      "inputs": [
        {
          "internalType": "address",
          "name": "account",
          "type": "address"
        },
        {
          "internalType": "address",
          "name": "operator",
          "type": "address"
        }
      ],
      "name": "isApprovedForAll",
      "outputs": [
        {
          "internalType": "bool",
          "name": "",
          "type": "bool"
        }
      ],
      "stateMutability": "view",
      "type": "function"
    },
    {
      "inputs": [
        {
          "internalType": "string",
          "name": "",
          "type": "string"
        }
      ],
      "name": "nameToId",
      "outputs": [
        {
          "internalType": "uint256",
          "name": "",
          "type": "uint256"
        }
      ],
      "stateMutability": "view",
      "type": "function"
    },
    {
      "inputs": [],
      "name": "owner",
      "outputs": [
        {
          "internalType": "address",
          "name": "",
          "type": "address"
        }
      ],
      "stateMutability": "view",
      "type": "function"
    },
    {
      "inputs": [],
      "name": "rate",
      "outputs": [
        {
          "internalType": "uint256",
          "name": "",
          "type": "uint256"
        }
      ],
      "stateMutability": "view",
      "type": "function"
    },
    {
      "inputs": [],
      "name": "renounceOwnership",
      "outputs": [],
      "stateMutability": "nonpayable",
      "type": "function"
    },
    {
      "inputs": [
        {
          "internalType": "address",
          "name": "from",
          "type": "address"
        },
        {
          "internalType": "address",
          "name": "to",
          "type": "address"
        },
        {
          "internalType": "uint256[]",
          "name": "ids",
          "type": "uint256[]"
        },
        {
          "internalType": "uint256[]",
          "name": "amounts",
          "type": "uint256[]"
        },
        {
          "internalType": "bytes",
          "name": "data",
          "type": "bytes"
        }
      ],
      "name": "safeBatchTransferFrom",
      "outputs": [],
      "stateMutability": "nonpayable",
      "type": "function"
    },
    {
      "inputs": [
        {
          "internalType": "address",
          "name": "from",
          "type": "address"
        },
        {
          "internalType": "address",
          "name": "to",
          "type": "address"
        },
        {
          "internalType": "uint256",
          "name": "id",
          "type": "uint256"
        },
        {
          "internalType": "uint256",
          "name": "amount",
          "type": "uint256"
        },
        {
          "internalType": "bytes",
          "name": "data",
          "type": "bytes"
        }
      ],
      "name": "safeTransferFrom",
      "outputs": [],
      "stateMutability": "nonpayable",
      "type": "function"
    },
    {
      "inputs": [
        {
          "internalType": "address",
          "name": "operator",
          "type": "address"
        },
        {
          "internalType": "bool",
          "name": "approved",
          "type": "bool"
        }
      ],
      "name": "setApprovalForAll",
      "outputs": [],
      "stateMutability": "nonpayable",
      "type": "function"
    },
    {
      "inputs": [
        {
          "internalType": "string",
          "name": "",
          "type": "string"
        }
      ],
      "name": "tokenExist",
      "outputs": [
        {
          "internalType": "bool",
          "name": "",
          "type": "bool"
        }
      ],
      "stateMutability": "view",
      "type": "function"
    },
    {
      "inputs": [],
      "name": "tokenNum",
      "outputs": [
        {
          "internalType": "uint256",
          "name": "",
          "type": "uint256"
        }
      ],
      "stateMutability": "view",
      "type": "function"
    },
    {
      "inputs": [
        {
          "internalType": "uint256",
          "name": "",
          "type": "uint256"
        }
      ],
      "name": "tokenPrice",
      "outputs": [
        {
          "internalType": "uint256",
          "name": "",
          "type": "uint256"
        }
      ],
      "stateMutability": "view",
      "type": "function"
    },
    {
      "inputs": [
        {
          "internalType": "address",
          "name": "newOwner",
          "type": "address"
        }
      ],
      "name": "transferOwnership",
      "outputs": [],
      "stateMutability": "nonpayable",
      "type": "function"
    },
    {
      "inputs": [
        {
          "internalType": "uint256",
          "name": "",
          "type": "uint256"
        }
      ],
      "name": "uri",
      "outputs": [
        {
          "internalType": "string",
          "name": "",
          "type": "string"
        }
      ],
      "stateMutability": "view",
      "type": "function"
    },
    {
      "inputs": [],
      "name": "getTokenId",
      "outputs": [
        {
          "internalType": "uint256",
          "name": "",
          "type": "uint256"
        }
      ],
      "stateMutability": "pure",
      "type": "function"
    },
    {
      "inputs": [
        {
          "internalType": "uint256",
          "name": "_id",
          "type": "uint256"
        }
      ],
      "name": "getNFTPrice",
      "outputs": [
        {
          "internalType": "uint256",
          "name": "",
          "type": "uint256"
        }
      ],
      "stateMutability": "view",
      "type": "function"
    },
    {
      "inputs": [
        {
          "internalType": "bytes4",
          "name": "interfaceId",
          "type": "bytes4"
        }
      ],
      "name": "supportsInterface",
      "outputs": [
        {
          "internalType": "bool",
          "name": "",
          "type": "bool"
        }
      ],
      "stateMutability": "view",
      "type": "function"
    },
    {
      "inputs": [
        {
          "internalType": "uint256",
          "name": "_rate",
          "type": "uint256"
        }
      ],
      "name": "setRate",
      "outputs": [],
      "stateMutability": "nonpayable",
      "type": "function"
    },
    {
      "inputs": [],
      "name": "getRate",
      "outputs": [
        {
          "internalType": "uint256",
          "name": "",
          "type": "uint256"
        }
      ],
      "stateMutability": "view",
      "type": "function"
    },
    {
      "inputs": [
        {
          "internalType": "string",
          "name": "_name",
          "type": "string"
        },
        {
          "internalType": "uint256",
          "name": "_price",
          "type": "uint256"
        }
      ],
      "name": "createNFT",
      "outputs": [
        {
          "internalType": "uint256",
          "name": "",
          "type": "uint256"
        }
      ],
      "stateMutability": "nonpayable",
      "type": "function"
    }
  ],
  "bytecode": "0x60806040523480156200001157600080fd5b506040518060200160405280600081525062000033816200009760201b60201c565b506200005462000048620000b360201b60201c565b620000bb60201b60201c565b6200007c3360006305f5e100604051806020016040528060008152506200018160201b60201c565b6509184e72a000600481905550600260068190555062000d67565b8060029080519060200190620000af929190620005ea565b5050565b600033905090565b6000600360009054906101000a900473ffffffffffffffffffffffffffffffffffffffff16905081600360006101000a81548173ffffffffffffffffffffffffffffffffffffffff021916908373ffffffffffffffffffffffffffffffffffffffff1602179055508173ffffffffffffffffffffffffffffffffffffffff168173ffffffffffffffffffffffffffffffffffffffff167f8be0079c531659141344cd1fd0a4f28419497f9722a3daafe3b4186f6b6457e060405160405180910390a35050565b600073ffffffffffffffffffffffffffffffffffffffff168473ffffffffffffffffffffffffffffffffffffffff1603620001f3576040517f08c379a0000000000000000000000000000000000000000000000000000000008152600401620001ea9062000721565b60405180910390fd5b600062000205620000b360201b60201c565b90506200023e8160008762000220886200034560201b60201c565b62000231886200034560201b60201c565b87620003c660201b60201c565b8260008086815260200190815260200160002060008773ffffffffffffffffffffffffffffffffffffffff1673ffffffffffffffffffffffffffffffffffffffff16815260200190815260200160002060008282546200029f91906200077c565b925050819055508473ffffffffffffffffffffffffffffffffffffffff16600073ffffffffffffffffffffffffffffffffffffffff168273ffffffffffffffffffffffffffffffffffffffff167fc3d58168c5ae7397731d063d5bbf3d657854427343f4c083240f7aacaa2d0f6287876040516200031f929190620007ea565b60405180910390a46200033e81600087878787620003ce60201b60201c565b5050505050565b60606000600167ffffffffffffffff81111562000367576200036662000817565b5b604051908082528060200260200182016040528015620003965781602001602082028036833780820191505090505b5090508281600081518110620003b157620003b062000846565b5b60200260200101818152505080915050919050565b505050505050565b620003fa8473ffffffffffffffffffffffffffffffffffffffff16620005c760201b62000d6b1760201c565b15620005bf578373ffffffffffffffffffffffffffffffffffffffff1663f23a6e6187878686866040518663ffffffff1660e01b8152600401620004439594939291906200095e565b6020604051808303816000875af19250505080156200048257506040513d601f19601f820116820180604052508101906200047f919062000a2e565b60015b62000533576200049162000a6d565b806308c379a003620004f45750620004a862000ac8565b80620004b55750620004f6565b806040517f08c379a0000000000000000000000000000000000000000000000000000000008152600401620004eb919062000baf565b60405180910390fd5b505b6040517f08c379a00000000000000000000000000000000000000000000000000000000081526004016200052a9062000c49565b60405180910390fd5b63f23a6e6160e01b7bffffffffffffffffffffffffffffffffffffffffffffffffffffffff1916817bffffffffffffffffffffffffffffffffffffffffffffffffffffffff191614620005bd576040517f08c379a0000000000000000000000000000000000000000000000000000000008152600401620005b49062000ce1565b60405180910390fd5b505b505050505050565b6000808273ffffffffffffffffffffffffffffffffffffffff163b119050919050565b828054620005f89062000d32565b90600052602060002090601f0160209004810192826200061c576000855562000668565b82601f106200063757805160ff191683800117855562000668565b8280016001018555821562000668579182015b82811115620006675782518255916020019190600101906200064a565b5b5090506200067791906200067b565b5090565b5b80821115620006965760008160009055506001016200067c565b5090565b600082825260208201905092915050565b7f455243313135353a206d696e7420746f20746865207a65726f2061646472657360008201527f7300000000000000000000000000000000000000000000000000000000000000602082015250565b6000620007096021836200069a565b91506200071682620006ab565b604082019050919050565b600060208201905081810360008301526200073c81620006fa565b9050919050565b6000819050919050565b7f4e487b7100000000000000000000000000000000000000000000000000000000600052601160045260246000fd5b6000620007898262000743565b9150620007968362000743565b9250827fffffffffffffffffffffffffffffffffffffffffffffffffffffffffffffffff03821115620007ce57620007cd6200074d565b5b828201905092915050565b620007e48162000743565b82525050565b6000604082019050620008016000830185620007d9565b620008106020830184620007d9565b9392505050565b7f4e487b7100000000000000000000000000000000000000000000000000000000600052604160045260246000fd5b7f4e487b7100000000000000000000000000000000000000000000000000000000600052603260045260246000fd5b600073ffffffffffffffffffffffffffffffffffffffff82169050919050565b6000620008a28262000875565b9050919050565b620008b48162000895565b82525050565b600081519050919050565b600082825260208201905092915050565b60005b83811015620008f6578082015181840152602081019050620008d9565b8381111562000906576000848401525b50505050565b6000601f19601f8301169050919050565b60006200092a82620008ba565b620009368185620008c5565b935062000948818560208601620008d6565b62000953816200090c565b840191505092915050565b600060a082019050620009756000830188620008a9565b620009846020830187620008a9565b620009936040830186620007d9565b620009a26060830185620007d9565b8181036080830152620009b681846200091d565b90509695505050505050565b6000604051905090565b600080fd5b60007fffffffff0000000000000000000000000000000000000000000000000000000082169050919050565b62000a0881620009d1565b811462000a1457600080fd5b50565b60008151905062000a2881620009fd565b92915050565b60006020828403121562000a475762000a46620009cc565b5b600062000a578482850162000a17565b91505092915050565b60008160e01c9050919050565b600060033d111562000a8f5760046000803e62000a8c60005162000a60565b90505b90565b62000a9d826200090c565b810181811067ffffffffffffffff8211171562000abf5762000abe62000817565b5b80604052505050565b600060443d1062000b605762000add620009c2565b60043d036004823e80513d602482011167ffffffffffffffff8211171562000b0757505062000b60565b808201805167ffffffffffffffff81111562000b27575050505062000b60565b80602083010160043d03850181111562000b4657505050505062000b60565b62000b578260200185018662000a92565b82955050505050505b90565b600081519050919050565b600062000b7b8262000b63565b62000b8781856200069a565b935062000b99818560208601620008d6565b62000ba4816200090c565b840191505092915050565b6000602082019050818103600083015262000bcb818462000b6e565b905092915050565b7f455243313135353a207472616e7366657220746f206e6f6e204552433131353560008201527f526563656976657220696d706c656d656e746572000000000000000000000000602082015250565b600062000c316034836200069a565b915062000c3e8262000bd3565b604082019050919050565b6000602082019050818103600083015262000c648162000c22565b9050919050565b7f455243313135353a204552433131353552656365697665722072656a6563746560008201527f6420746f6b656e73000000000000000000000000000000000000000000000000602082015250565b600062000cc96028836200069a565b915062000cd68262000c6b565b604082019050919050565b6000602082019050818103600083015262000cfc8162000cba565b9050919050565b7f4e487b7100000000000000000000000000000000000000000000000000000000600052602260045260246000fd5b6000600282049050600182168062000d4b57607f821691505b60208210810362000d615762000d6062000d03565b5b50919050565b61328a8062000d776000396000f3fe608060405234801561001057600080fd5b506004361061014c5760003560e01c8063715018a6116100c3578063c79174551161007c578063c7917455146103b3578063d4ddce8a146103d1578063e985e9c514610401578063f242432a14610431578063f2fde38b1461044d578063f6d8f2cb146104695761014c565b8063715018a61461030357806376809ce31461030d5780638da5cb5b1461032b5780639297617914610349578063a22cb46514610379578063bfa87e46146103955761014c565b80632682915511610115578063268291551461022f5780632c4e722e1461025f5780632eb2c2d61461027d57806334fcf437146102995780634e1273f4146102b5578063679aefce146102e55761014c565b8062fdd58e14610151578063010a38f51461018157806301ffc9a71461019f5780630e89341c146101cf5780631646983a146101ff575b600080fd5b61016b60048036038101906101669190611d15565b610499565b6040516101789190611d64565b60405180910390f35b610189610561565b6040516101969190611d64565b60405180910390f35b6101b960048036038101906101b49190611dd7565b610566565b6040516101c69190611e1f565b60405180910390f35b6101e960048036038101906101e49190611e3a565b610578565b6040516101f69190611f00565b60405180910390f35b61021960048036038101906102149190612057565b61060c565b6040516102269190611e1f565b60405180910390f35b610249600480360381019061024491906120a0565b610642565b6040516102569190611d64565b60405180910390f35b6102676107b3565b6040516102749190611d64565b60405180910390f35b61029760048036038101906102929190612265565b6107b9565b005b6102b360048036038101906102ae9190611e3a565b61085a565b005b6102cf60048036038101906102ca91906123f7565b6108e0565b6040516102dc919061252d565b60405180910390f35b6102ed6109f9565b6040516102fa9190611d64565b60405180910390f35b61030b610a03565b005b610315610a8b565b6040516103229190611d64565b60405180910390f35b610333610a91565b604051610340919061255e565b60405180910390f35b610363600480360381019061035e9190611e3a565b610abb565b6040516103709190611d64565b60405180910390f35b610393600480360381019061038e91906125a5565b610ad8565b005b61039d610aee565b6040516103aa9190611d64565b60405180910390f35b6103bb610af4565b6040516103c89190611d64565b60405180910390f35b6103eb60048036038101906103e69190611e3a565b610af9565b6040516103f89190611d64565b60405180910390f35b61041b600480360381019061041691906125e5565b610b11565b6040516104289190611e1f565b60405180910390f35b61044b60048036038101906104469190612625565b610ba5565b005b610467600480360381019061046291906126bc565b610c46565b005b610483600480360381019061047e9190612057565b610d3d565b6040516104909190611d64565b60405180910390f35b60008073ffffffffffffffffffffffffffffffffffffffff168373ffffffffffffffffffffffffffffffffffffffff1603610509576040517f08c379a00000000000000000000000000000000000000000000000000000000081526004016105009061275b565b60405180910390fd5b60008083815260200190815260200160002060008473ffffffffffffffffffffffffffffffffffffffff1673ffffffffffffffffffffffffffffffffffffffff16815260200190815260200160002054905092915050565b600090565b600061057182610d8e565b9050919050565b606060028054610587906127aa565b80601f01602080910402602001604051908101604052809291908181526020018280546105b3906127aa565b80156106005780601f106105d557610100808354040283529160200191610600565b820191906000526020600020905b8154815290600101906020018083116105e357829003601f168201915b50505050509050919050565b6009818051602081018201805184825260208301602085012081835280955050505050506000915054906101000a900460ff1681565b600061064c610e70565b73ffffffffffffffffffffffffffffffffffffffff1661066a610a91565b73ffffffffffffffffffffffffffffffffffffffff16146106c0576040517f08c379a00000000000000000000000000000000000000000000000000000000081526004016106b790612827565b60405180910390fd5b600015156009846040516106d49190612883565b908152602001604051809103902060009054906101000a900460ff161515146106fc57600080fd5b6005600081548092919061070f906128c9565b919050555081600760006005548152602001908152602001600020819055506005546008846040516107419190612883565b90815260200160405180910390208190555060016009846040516107659190612883565b908152602001604051809103902060006101000a81548160ff0219169083151502179055506107a833600554600160405180602001604052806000815250610e78565b600554905092915050565b60045481565b6107c1610e70565b73ffffffffffffffffffffffffffffffffffffffff168573ffffffffffffffffffffffffffffffffffffffff161480610807575061080685610801610e70565b610b11565b5b610846576040517f08c379a000000000000000000000000000000000000000000000000000000000815260040161083d90612983565b60405180910390fd5b610853858585858561100d565b5050505050565b610862610e70565b73ffffffffffffffffffffffffffffffffffffffff16610880610a91565b73ffffffffffffffffffffffffffffffffffffffff16146108d6576040517f08c379a00000000000000000000000000000000000000000000000000000000081526004016108cd90612827565b60405180910390fd5b8060048190555050565b60608151835114610926576040517f08c379a000000000000000000000000000000000000000000000000000000000815260040161091d90612a15565b60405180910390fd5b6000835167ffffffffffffffff81111561094357610942611f2c565b5b6040519080825280602002602001820160405280156109715781602001602082028036833780820191505090505b50905060005b84518110156109ee576109be85828151811061099657610995612a35565b5b60200260200101518583815181106109b1576109b0612a35565b5b6020026020010151610499565b8282815181106109d1576109d0612a35565b5b602002602001018181525050806109e7906128c9565b9050610977565b508091505092915050565b6000600454905090565b610a0b610e70565b73ffffffffffffffffffffffffffffffffffffffff16610a29610a91565b73ffffffffffffffffffffffffffffffffffffffff1614610a7f576040517f08c379a0000000000000000000000000000000000000000000000000000000008152600401610a7690612827565b60405180910390fd5b610a896000611320565b565b60065481565b6000600360009054906101000a900473ffffffffffffffffffffffffffffffffffffffff16905090565b600060076000838152602001908152602001600020549050919050565b610aea610ae3610e70565b83836113e6565b5050565b60055481565b600081565b60076020528060005260406000206000915090505481565b6000600160008473ffffffffffffffffffffffffffffffffffffffff1673ffffffffffffffffffffffffffffffffffffffff16815260200190815260200160002060008373ffffffffffffffffffffffffffffffffffffffff1673ffffffffffffffffffffffffffffffffffffffff16815260200190815260200160002060009054906101000a900460ff16905092915050565b610bad610e70565b73ffffffffffffffffffffffffffffffffffffffff168573ffffffffffffffffffffffffffffffffffffffff161480610bf35750610bf285610bed610e70565b610b11565b5b610c32576040517f08c379a0000000000000000000000000000000000000000000000000000000008152600401610c2990612ad6565b60405180910390fd5b610c3f8585858585611552565b5050505050565b610c4e610e70565b73ffffffffffffffffffffffffffffffffffffffff16610c6c610a91565b73ffffffffffffffffffffffffffffffffffffffff1614610cc2576040517f08c379a0000000000000000000000000000000000000000000000000000000008152600401610cb990612827565b60405180910390fd5b600073ffffffffffffffffffffffffffffffffffffffff168173ffffffffffffffffffffffffffffffffffffffff1603610d31576040517f08c379a0000000000000000000000000000000000000000000000000000000008152600401610d2890612b68565b60405180910390fd5b610d3a81611320565b50565b6008818051602081018201805184825260208301602085012081835280955050505050506000915090505481565b6000808273ffffffffffffffffffffffffffffffffffffffff163b119050919050565b60007fd9b67a26000000000000000000000000000000000000000000000000000000007bffffffffffffffffffffffffffffffffffffffffffffffffffffffff1916827bffffffffffffffffffffffffffffffffffffffffffffffffffffffff19161480610e5957507f0e89341c000000000000000000000000000000000000000000000000000000007bffffffffffffffffffffffffffffffffffffffffffffffffffffffff1916827bffffffffffffffffffffffffffffffffffffffffffffffffffffffff1916145b80610e695750610e68826117d3565b5b9050919050565b600033905090565b600073ffffffffffffffffffffffffffffffffffffffff168473ffffffffffffffffffffffffffffffffffffffff1603610ee7576040517f08c379a0000000000000000000000000000000000000000000000000000000008152600401610ede90612bfa565b60405180910390fd5b6000610ef1610e70565b9050610f1281600087610f038861183d565b610f0c8861183d565b876118b7565b8260008086815260200190815260200160002060008773ffffffffffffffffffffffffffffffffffffffff1673ffffffffffffffffffffffffffffffffffffffff1681526020019081526020016000206000828254610f719190612c1a565b925050819055508473ffffffffffffffffffffffffffffffffffffffff16600073ffffffffffffffffffffffffffffffffffffffff168273ffffffffffffffffffffffffffffffffffffffff167fc3d58168c5ae7397731d063d5bbf3d657854427343f4c083240f7aacaa2d0f628787604051610fef929190612c70565b60405180910390a4611006816000878787876118bf565b5050505050565b8151835114611051576040517f08c379a000000000000000000000000000000000000000000000000000000000815260040161104890612d0b565b60405180910390fd5b600073ffffffffffffffffffffffffffffffffffffffff168473ffffffffffffffffffffffffffffffffffffffff16036110c0576040517f08c379a00000000000000000000000000000000000000000000000000000000081526004016110b790612d9d565b60405180910390fd5b60006110ca610e70565b90506110da8187878787876118b7565b60005b845181101561128b5760008582815181106110fb576110fa612a35565b5b60200260200101519050600085838151811061111a57611119612a35565b5b60200260200101519050600080600084815260200190815260200160002060008b73ffffffffffffffffffffffffffffffffffffffff1673ffffffffffffffffffffffffffffffffffffffff168152602001908152602001600020549050818110156111bb576040517f08c379a00000000000000000000000000000000000000000000000000000000081526004016111b290612e2f565b60405180910390fd5b81810360008085815260200190815260200160002060008c73ffffffffffffffffffffffffffffffffffffffff1673ffffffffffffffffffffffffffffffffffffffff168152602001908152602001600020819055508160008085815260200190815260200160002060008b73ffffffffffffffffffffffffffffffffffffffff1673ffffffffffffffffffffffffffffffffffffffff16815260200190815260200160002060008282546112709190612c1a565b9250508190555050505080611284906128c9565b90506110dd565b508473ffffffffffffffffffffffffffffffffffffffff168673ffffffffffffffffffffffffffffffffffffffff168273ffffffffffffffffffffffffffffffffffffffff167f4a39dc06d4c0dbc64b70af90fd698a233a518aa5d07e595d983b8c0526c8f7fb8787604051611302929190612e4f565b60405180910390a4611318818787878787611a96565b505050505050565b6000600360009054906101000a900473ffffffffffffffffffffffffffffffffffffffff16905081600360006101000a81548173ffffffffffffffffffffffffffffffffffffffff021916908373ffffffffffffffffffffffffffffffffffffffff1602179055508173ffffffffffffffffffffffffffffffffffffffff168173ffffffffffffffffffffffffffffffffffffffff167f8be0079c531659141344cd1fd0a4f28419497f9722a3daafe3b4186f6b6457e060405160405180910390a35050565b8173ffffffffffffffffffffffffffffffffffffffff168373ffffffffffffffffffffffffffffffffffffffff1603611454576040517f08c379a000000000000000000000000000000000000000000000000000000000815260040161144b90612ef8565b60405180910390fd5b80600160008573ffffffffffffffffffffffffffffffffffffffff1673ffffffffffffffffffffffffffffffffffffffff16815260200190815260200160002060008473ffffffffffffffffffffffffffffffffffffffff1673ffffffffffffffffffffffffffffffffffffffff16815260200190815260200160002060006101000a81548160ff0219169083151502179055508173ffffffffffffffffffffffffffffffffffffffff168373ffffffffffffffffffffffffffffffffffffffff167f17307eab39ab6107e8899845ad3d59bd9653f200f220920489ca2b5937696c31836040516115459190611e1f565b60405180910390a3505050565b600073ffffffffffffffffffffffffffffffffffffffff168473ffffffffffffffffffffffffffffffffffffffff16036115c1576040517f08c379a00000000000000000000000000000000000000000000000000000000081526004016115b890612d9d565b60405180910390fd5b60006115cb610e70565b90506115eb8187876115dc8861183d565b6115e58861183d565b876118b7565b600080600086815260200190815260200160002060008873ffffffffffffffffffffffffffffffffffffffff1673ffffffffffffffffffffffffffffffffffffffff16815260200190815260200160002054905083811015611682576040517f08c379a000000000000000000000000000000000000000000000000000000000815260040161167990612e2f565b60405180910390fd5b83810360008087815260200190815260200160002060008973ffffffffffffffffffffffffffffffffffffffff1673ffffffffffffffffffffffffffffffffffffffff168152602001908152602001600020819055508360008087815260200190815260200160002060008873ffffffffffffffffffffffffffffffffffffffff1673ffffffffffffffffffffffffffffffffffffffff16815260200190815260200160002060008282546117379190612c1a565b925050819055508573ffffffffffffffffffffffffffffffffffffffff168773ffffffffffffffffffffffffffffffffffffffff168373ffffffffffffffffffffffffffffffffffffffff167fc3d58168c5ae7397731d063d5bbf3d657854427343f4c083240f7aacaa2d0f6288886040516117b4929190612c70565b60405180910390a46117ca8288888888886118bf565b50505050505050565b60007f01ffc9a7000000000000000000000000000000000000000000000000000000007bffffffffffffffffffffffffffffffffffffffffffffffffffffffff1916827bffffffffffffffffffffffffffffffffffffffffffffffffffffffff1916149050919050565b60606000600167ffffffffffffffff81111561185c5761185b611f2c565b5b60405190808252806020026020018201604052801561188a5781602001602082028036833780820191505090505b50905082816000815181106118a2576118a1612a35565b5b60200260200101818152505080915050919050565b505050505050565b6118de8473ffffffffffffffffffffffffffffffffffffffff16610d6b565b15611a8e578373ffffffffffffffffffffffffffffffffffffffff1663f23a6e6187878686866040518663ffffffff1660e01b8152600401611924959493929190612f6d565b6020604051808303816000875af192505050801561196057506040513d601f19601f8201168201806040525081019061195d9190612fdc565b60015b611a055761196c613016565b806308c379a0036119c85750611980613038565b8061198b57506119ca565b806040517f08c379a00000000000000000000000000000000000000000000000000000000081526004016119bf9190611f00565b60405180910390fd5b505b6040517f08c379a00000000000000000000000000000000000000000000000000000000081526004016119fc9061313a565b60405180910390fd5b63f23a6e6160e01b7bffffffffffffffffffffffffffffffffffffffffffffffffffffffff1916817bffffffffffffffffffffffffffffffffffffffffffffffffffffffff191614611a8c576040517f08c379a0000000000000000000000000000000000000000000000000000000008152600401611a83906131cc565b60405180910390fd5b505b505050505050565b611ab58473ffffffffffffffffffffffffffffffffffffffff16610d6b565b15611c65578373ffffffffffffffffffffffffffffffffffffffff1663bc197c8187878686866040518663ffffffff1660e01b8152600401611afb9594939291906131ec565b6020604051808303816000875af1925050508015611b3757506040513d601f19601f82011682018060405250810190611b349190612fdc565b60015b611bdc57611b43613016565b806308c379a003611b9f5750611b57613038565b80611b625750611ba1565b806040517f08c379a0000000000000000000000000000000000000000000000000000000008152600401611b969190611f00565b60405180910390fd5b505b6040517f08c379a0000000000000000000000000000000000000000000000000000000008152600401611bd39061313a565b60405180910390fd5b63bc197c8160e01b7bffffffffffffffffffffffffffffffffffffffffffffffffffffffff1916817bffffffffffffffffffffffffffffffffffffffffffffffffffffffff191614611c63576040517f08c379a0000000000000000000000000000000000000000000000000000000008152600401611c5a906131cc565b60405180910390fd5b505b505050505050565b6000604051905090565b600080fd5b600080fd5b600073ffffffffffffffffffffffffffffffffffffffff82169050919050565b6000611cac82611c81565b9050919050565b611cbc81611ca1565b8114611cc757600080fd5b50565b600081359050611cd981611cb3565b92915050565b6000819050919050565b611cf281611cdf565b8114611cfd57600080fd5b50565b600081359050611d0f81611ce9565b92915050565b60008060408385031215611d2c57611d2b611c77565b5b6000611d3a85828601611cca565b9250506020611d4b85828601611d00565b9150509250929050565b611d5e81611cdf565b82525050565b6000602082019050611d796000830184611d55565b92915050565b60007fffffffff0000000000000000000000000000000000000000000000000000000082169050919050565b611db481611d7f565b8114611dbf57600080fd5b50565b600081359050611dd181611dab565b92915050565b600060208284031215611ded57611dec611c77565b5b6000611dfb84828501611dc2565b91505092915050565b60008115159050919050565b611e1981611e04565b82525050565b6000602082019050611e346000830184611e10565b92915050565b600060208284031215611e5057611e4f611c77565b5b6000611e5e84828501611d00565b91505092915050565b600081519050919050565b600082825260208201905092915050565b60005b83811015611ea1578082015181840152602081019050611e86565b83811115611eb0576000848401525b50505050565b6000601f19601f8301169050919050565b6000611ed282611e67565b611edc8185611e72565b9350611eec818560208601611e83565b611ef581611eb6565b840191505092915050565b60006020820190508181036000830152611f1a8184611ec7565b905092915050565b600080fd5b600080fd5b7f4e487b7100000000000000000000000000000000000000000000000000000000600052604160045260246000fd5b611f6482611eb6565b810181811067ffffffffffffffff82111715611f8357611f82611f2c565b5b80604052505050565b6000611f96611c6d565b9050611fa28282611f5b565b919050565b600067ffffffffffffffff821115611fc257611fc1611f2c565b5b611fcb82611eb6565b9050602081019050919050565b82818337600083830152505050565b6000611ffa611ff584611fa7565b611f8c565b90508281526020810184848401111561201657612015611f27565b5b612021848285611fd8565b509392505050565b600082601f83011261203e5761203d611f22565b5b813561204e848260208601611fe7565b91505092915050565b60006020828403121561206d5761206c611c77565b5b600082013567ffffffffffffffff81111561208b5761208a611c7c565b5b61209784828501612029565b91505092915050565b600080604083850312156120b7576120b6611c77565b5b600083013567ffffffffffffffff8111156120d5576120d4611c7c565b5b6120e185828601612029565b92505060206120f285828601611d00565b9150509250929050565b600067ffffffffffffffff82111561211757612116611f2c565b5b602082029050602081019050919050565b600080fd5b600061214061213b846120fc565b611f8c565b9050808382526020820190506020840283018581111561216357612162612128565b5b835b8181101561218c57806121788882611d00565b845260208401935050602081019050612165565b5050509392505050565b600082601f8301126121ab576121aa611f22565b5b81356121bb84826020860161212d565b91505092915050565b600067ffffffffffffffff8211156121df576121de611f2c565b5b6121e882611eb6565b9050602081019050919050565b6000612208612203846121c4565b611f8c565b90508281526020810184848401111561222457612223611f27565b5b61222f848285611fd8565b509392505050565b600082601f83011261224c5761224b611f22565b5b813561225c8482602086016121f5565b91505092915050565b600080600080600060a0868803121561228157612280611c77565b5b600061228f88828901611cca565b95505060206122a088828901611cca565b945050604086013567ffffffffffffffff8111156122c1576122c0611c7c565b5b6122cd88828901612196565b935050606086013567ffffffffffffffff8111156122ee576122ed611c7c565b5b6122fa88828901612196565b925050608086013567ffffffffffffffff81111561231b5761231a611c7c565b5b61232788828901612237565b9150509295509295909350565b600067ffffffffffffffff82111561234f5761234e611f2c565b5b602082029050602081019050919050565b600061237361236e84612334565b611f8c565b9050808382526020820190506020840283018581111561239657612395612128565b5b835b818110156123bf57806123ab8882611cca565b845260208401935050602081019050612398565b5050509392505050565b600082601f8301126123de576123dd611f22565b5b81356123ee848260208601612360565b91505092915050565b6000806040838503121561240e5761240d611c77565b5b600083013567ffffffffffffffff81111561242c5761242b611c7c565b5b612438858286016123c9565b925050602083013567ffffffffffffffff81111561245957612458611c7c565b5b61246585828601612196565b9150509250929050565b600081519050919050565b600082825260208201905092915050565b6000819050602082019050919050565b6124a481611cdf565b82525050565b60006124b6838361249b565b60208301905092915050565b6000602082019050919050565b60006124da8261246f565b6124e4818561247a565b93506124ef8361248b565b8060005b8381101561252057815161250788826124aa565b9750612512836124c2565b9250506001810190506124f3565b5085935050505092915050565b6000602082019050818103600083015261254781846124cf565b905092915050565b61255881611ca1565b82525050565b6000602082019050612573600083018461254f565b92915050565b61258281611e04565b811461258d57600080fd5b50565b60008135905061259f81612579565b92915050565b600080604083850312156125bc576125bb611c77565b5b60006125ca85828601611cca565b92505060206125db85828601612590565b9150509250929050565b600080604083850312156125fc576125fb611c77565b5b600061260a85828601611cca565b925050602061261b85828601611cca565b9150509250929050565b600080600080600060a0868803121561264157612640611c77565b5b600061264f88828901611cca565b955050602061266088828901611cca565b945050604061267188828901611d00565b935050606061268288828901611d00565b925050608086013567ffffffffffffffff8111156126a3576126a2611c7c565b5b6126af88828901612237565b9150509295509295909350565b6000602082840312156126d2576126d1611c77565b5b60006126e084828501611cca565b91505092915050565b7f455243313135353a2062616c616e636520717565727920666f7220746865207a60008201527f65726f2061646472657373000000000000000000000000000000000000000000602082015250565b6000612745602b83611e72565b9150612750826126e9565b604082019050919050565b6000602082019050818103600083015261277481612738565b9050919050565b7f4e487b7100000000000000000000000000000000000000000000000000000000600052602260045260246000fd5b600060028204905060018216806127c257607f821691505b6020821081036127d5576127d461277b565b5b50919050565b7f4f776e61626c653a2063616c6c6572206973206e6f7420746865206f776e6572600082015250565b6000612811602083611e72565b915061281c826127db565b602082019050919050565b6000602082019050818103600083015261284081612804565b9050919050565b600081905092915050565b600061285d82611e67565b6128678185612847565b9350612877818560208601611e83565b80840191505092915050565b600061288f8284612852565b915081905092915050565b7f4e487b7100000000000000000000000000000000000000000000000000000000600052601160045260246000fd5b60006128d482611cdf565b91507fffffffffffffffffffffffffffffffffffffffffffffffffffffffffffffffff82036129065761290561289a565b5b600182019050919050565b7f455243313135353a207472616e736665722063616c6c6572206973206e6f742060008201527f6f776e6572206e6f7220617070726f7665640000000000000000000000000000602082015250565b600061296d603283611e72565b915061297882612911565b604082019050919050565b6000602082019050818103600083015261299c81612960565b9050919050565b7f455243313135353a206163636f756e747320616e6420696473206c656e67746860008201527f206d69736d617463680000000000000000000000000000000000000000000000602082015250565b60006129ff602983611e72565b9150612a0a826129a3565b604082019050919050565b60006020820190508181036000830152612a2e816129f2565b9050919050565b7f4e487b7100000000000000000000000000000000000000000000000000000000600052603260045260246000fd5b7f455243313135353a2063616c6c6572206973206e6f74206f776e6572206e6f7260008201527f20617070726f7665640000000000000000000000000000000000000000000000602082015250565b6000612ac0602983611e72565b9150612acb82612a64565b604082019050919050565b60006020820190508181036000830152612aef81612ab3565b9050919050565b7f4f776e61626c653a206e6577206f776e657220697320746865207a65726f206160008201527f6464726573730000000000000000000000000000000000000000000000000000602082015250565b6000612b52602683611e72565b9150612b5d82612af6565b604082019050919050565b60006020820190508181036000830152612b8181612b45565b9050919050565b7f455243313135353a206d696e7420746f20746865207a65726f2061646472657360008201527f7300000000000000000000000000000000000000000000000000000000000000602082015250565b6000612be4602183611e72565b9150612bef82612b88565b604082019050919050565b60006020820190508181036000830152612c1381612bd7565b9050919050565b6000612c2582611cdf565b9150612c3083611cdf565b9250827fffffffffffffffffffffffffffffffffffffffffffffffffffffffffffffffff03821115612c6557612c6461289a565b5b828201905092915050565b6000604082019050612c856000830185611d55565b612c926020830184611d55565b9392505050565b7f455243313135353a2069647320616e6420616d6f756e7473206c656e6774682060008201527f6d69736d61746368000000000000000000000000000000000000000000000000602082015250565b6000612cf5602883611e72565b9150612d0082612c99565b604082019050919050565b60006020820190508181036000830152612d2481612ce8565b9050919050565b7f455243313135353a207472616e7366657220746f20746865207a65726f20616460008201527f6472657373000000000000000000000000000000000000000000000000000000602082015250565b6000612d87602583611e72565b9150612d9282612d2b565b604082019050919050565b60006020820190508181036000830152612db681612d7a565b9050919050565b7f455243313135353a20696e73756666696369656e742062616c616e636520666f60008201527f72207472616e7366657200000000000000000000000000000000000000000000602082015250565b6000612e19602a83611e72565b9150612e2482612dbd565b604082019050919050565b60006020820190508181036000830152612e4881612e0c565b9050919050565b60006040820190508181036000830152612e6981856124cf565b90508181036020830152612e7d81846124cf565b90509392505050565b7f455243313135353a2073657474696e6720617070726f76616c2073746174757360008201527f20666f722073656c660000000000000000000000000000000000000000000000602082015250565b6000612ee2602983611e72565b9150612eed82612e86565b604082019050919050565b60006020820190508181036000830152612f1181612ed5565b9050919050565b600081519050919050565b600082825260208201905092915050565b6000612f3f82612f18565b612f498185612f23565b9350612f59818560208601611e83565b612f6281611eb6565b840191505092915050565b600060a082019050612f82600083018861254f565b612f8f602083018761254f565b612f9c6040830186611d55565b612fa96060830185611d55565b8181036080830152612fbb8184612f34565b90509695505050505050565b600081519050612fd681611dab565b92915050565b600060208284031215612ff257612ff1611c77565b5b600061300084828501612fc7565b91505092915050565b60008160e01c9050919050565b600060033d11156130355760046000803e613032600051613009565b90505b90565b600060443d106130c55761304a611c6d565b60043d036004823e80513d602482011167ffffffffffffffff821117156130725750506130c5565b808201805167ffffffffffffffff81111561309057505050506130c5565b80602083010160043d0385018111156130ad5750505050506130c5565b6130bc82602001850186611f5b565b82955050505050505b90565b7f455243313135353a207472616e7366657220746f206e6f6e204552433131353560008201527f526563656976657220696d706c656d656e746572000000000000000000000000602082015250565b6000613124603483611e72565b915061312f826130c8565b604082019050919050565b6000602082019050818103600083015261315381613117565b9050919050565b7f455243313135353a204552433131353552656365697665722072656a6563746560008201527f6420746f6b656e73000000000000000000000000000000000000000000000000602082015250565b60006131b6602883611e72565b91506131c18261315a565b604082019050919050565b600060208201905081810360008301526131e5816131a9565b9050919050565b600060a082019050613201600083018861254f565b61320e602083018761254f565b818103604083015261322081866124cf565b9050818103606083015261323481856124cf565b905081810360808301526132488184612f34565b9050969550505050505056fea264697066735822122082236eed1c4433af7806f2cb8716786a1005c8e74f10f1788183d54ee9e185fc64736f6c634300080d0033",
  "immutableReferences": {},
  "source": "// SPDX-License-Identifier: MIT\npragma solidity >=0.4.21 <0.9.0;\n\nimport \"openzeppelin-solidity/contracts/token/ERC1155/ERC1155.sol\";\nimport \"openzeppelin-solidity/contracts/access/AccessControl.sol\";\nimport \"openzeppelin-solidity/contracts/access/Ownable.sol\";\n\ncontract GameItems is ERC1155, Ownable{\n    \n    uint public constant GT = 0;\n    uint public rate; // This is used for exchanging ETH with GT token. It's the amount of Wei per GT. \n    uint public tokenNum;\n    uint public decimal;\n\n    mapping (uint => uint) public tokenPrice;\n    mapping (string => uint) public nameToId;\n    mapping (string => bool) public tokenExist;\n\n    event BuyGT(address _buyer, uint _amount);\n    event BuyNFT(address _buyer, uint _id);\n\n    constructor () ERC1155(\"\") {\n        _mint(msg.sender, GT, 10**8, \"\");\n        rate = 10**13;\n        decimal = 2;\n    }\n\n    function getTokenId() public pure returns(uint) {\n        return GT;\n    }\n\n    function getNFTPrice(uint _id) public view returns(uint) {\n        return tokenPrice[_id];\n    }\n\n    function supportsInterface(bytes4 interfaceId) public view override(ERC1155) returns (bool) {\n        return super.supportsInterface(interfaceId);\n    }\n\n    function setRate(uint _rate) public onlyOwner {\n        rate = _rate;\n    }\n\n    function getRate() public view returns(uint) {\n        return rate;\n    }\n\n    function createNFT(string memory _name, uint _price) public onlyOwner returns(uint){\n        require(tokenExist[_name] == false);\n        tokenNum ++;\n        tokenPrice[tokenNum] = _price;\n        nameToId[_name] = tokenNum;\n        tokenExist[_name] = true;\n        _mint(msg.sender, tokenNum, 1, \"\");\n        return tokenNum;\n    }\n}",
  "sourcePath": "/Volumes/DATA/Work/gameItemWithERC1155/contracts/GameItems.sol",
  "compiler": {
    "name": "solc",
    "version": "0.8.13+commit.abaa5c0e.Emscripten.clang"
  },
  "schemaVersion": "3.4.7",
  "updatedAt": "2022-04-27T09:24:13.436Z",
  "devdoc": {
    "kind": "dev",
    "methods": {
      "balanceOf(address,uint256)": {
        "details": "See {IERC1155-balanceOf}. Requirements: - `account` cannot be the zero address."
      },
      "balanceOfBatch(address[],uint256[])": {
        "details": "See {IERC1155-balanceOfBatch}. Requirements: - `accounts` and `ids` must have the same length."
      },
      "isApprovedForAll(address,address)": {
        "details": "See {IERC1155-isApprovedForAll}."
      },
      "owner()": {
        "details": "Returns the address of the current owner."
      },
      "renounceOwnership()": {
        "details": "Leaves the contract without owner. It will not be possible to call `onlyOwner` functions anymore. Can only be called by the current owner. NOTE: Renouncing ownership will leave the contract without an owner, thereby removing any functionality that is only available to the owner."
      },
      "safeBatchTransferFrom(address,address,uint256[],uint256[],bytes)": {
        "details": "See {IERC1155-safeBatchTransferFrom}."
      },
      "safeTransferFrom(address,address,uint256,uint256,bytes)": {
        "details": "See {IERC1155-safeTransferFrom}."
      },
      "setApprovalForAll(address,bool)": {
        "details": "See {IERC1155-setApprovalForAll}."
      },
      "supportsInterface(bytes4)": {
        "details": "See {IERC165-supportsInterface}."
      },
      "transferOwnership(address)": {
        "details": "Transfers ownership of the contract to a new account (`newOwner`). Can only be called by the current owner."
      },
      "uri(uint256)": {
        "details": "See {IERC1155MetadataURI-uri}. This implementation returns the same URI for *all* token types. It relies on the token type ID substitution mechanism https://eips.ethereum.org/EIPS/eip-1155#metadata[defined in the EIP]. Clients calling this function must replace the `\\{id\\}` substring with the actual token type ID."
      }
    },
    "version": 1
  },
  "userdoc": {
    "kind": "user",
    "methods": {},
    "version": 1
  }
}