{
  "contractName": "ItemMarket",
  "abi": [
    {
      "inputs": [
        {
          "internalType": "address",
          "name": "_user",
          "type": "address"
        }
      ],
      "stateMutability": "nonpayable",
      "type": "constructor"
    },
    {
      "anonymous": false,
      "inputs": [
        {
          "indexed": false,
          "internalType": "address",
          "name": "_buyer",
          "type": "address"
        },
        {
          "indexed": false,
          "internalType": "uint256",
          "name": "_amount",
          "type": "uint256"
        }
      ],
      "name": "BuyGT",
      "type": "event"
    },
    {
      "anonymous": false,
      "inputs": [
        {
          "indexed": false,
          "internalType": "address",
          "name": "_buyer",
          "type": "address"
        },
        {
          "indexed": false,
          "internalType": "uint256",
          "name": "_id",
          "type": "uint256"
        }
      ],
      "name": "BuyNFT",
      "type": "event"
    },
    {
      "inputs": [
        {
          "internalType": "uint256",
          "name": "_id",
          "type": "uint256"
        }
      ],
      "name": "buyNFT",
      "outputs": [],
      "stateMutability": "nonpayable",
      "type": "function"
    },
    {
      "inputs": [
        {
          "internalType": "uint256",
          "name": "_amount",
          "type": "uint256"
        }
      ],
      "name": "buyGT",
      "outputs": [],
      "stateMutability": "payable",
      "type": "function"
    }
  ],
  "bytecode": "0x608060405260008054906101000a900473ffffffffffffffffffffffffffffffffffffffff1673ffffffffffffffffffffffffffffffffffffffff16638da5cb5b6040518163ffffffff1660e01b8152600401602060405180830381865afa15801562000070573d6000803e3d6000fd5b505050506040513d601f19601f82011682018060405250810190620000969190620002e4565b600160006101000a81548173ffffffffffffffffffffffffffffffffffffffff021916908373ffffffffffffffffffffffffffffffffffffffff16021790555060008054906101000a900473ffffffffffffffffffffffffffffffffffffffff1673ffffffffffffffffffffffffffffffffffffffff1663679aefce6040518163ffffffff1660e01b8152600401602060405180830381865afa15801562000142573d6000803e3d6000fd5b505050506040513d601f19601f8201168201806040525081019062000168919062000351565b60025560008054906101000a900473ffffffffffffffffffffffffffffffffffffffff1673ffffffffffffffffffffffffffffffffffffffff1663010a38f56040518163ffffffff1660e01b8152600401602060405180830381865afa158015620001d7573d6000803e3d6000fd5b505050506040513d601f19601f82011682018060405250810190620001fd919062000351565b6003553480156200020d57600080fd5b50604051620010c0380380620010c08339818101604052810190620002339190620002e4565b806000806101000a81548173ffffffffffffffffffffffffffffffffffffffff021916908373ffffffffffffffffffffffffffffffffffffffff1602179055505062000383565b600080fd5b600073ffffffffffffffffffffffffffffffffffffffff82169050919050565b6000620002ac826200027f565b9050919050565b620002be816200029f565b8114620002ca57600080fd5b50565b600081519050620002de81620002b3565b92915050565b600060208284031215620002fd57620002fc6200027a565b5b60006200030d84828501620002cd565b91505092915050565b6000819050919050565b6200032b8162000316565b81146200033757600080fd5b50565b6000815190506200034b8162000320565b92915050565b6000602082840312156200036a57620003696200027a565b5b60006200037a848285016200033a565b91505092915050565b610d2d80620003936000396000f3fe6080604052600436106100295760003560e01c80632a7146c51461002e57806351ed82881461004a575b600080fd5b610048600480360381019061004391906107b9565b610073565b005b34801561005657600080fd5b50610071600480360381019061006c91906107b9565b61021c565b005b600254816100819190610815565b34146100c2576040517f08c379a00000000000000000000000000000000000000000000000000000000081526004016100b9906108cc565b60405180910390fd5b7f47a75c8c661f92de5400a139e841f8188e62d12bb168f38de3afb2aba14df02833826040516100f392919061093c565b60405180910390a160008054906101000a900473ffffffffffffffffffffffffffffffffffffffff1673ffffffffffffffffffffffffffffffffffffffff1663f242432a600160009054906101000a900473ffffffffffffffffffffffffffffffffffffffff1633600354856040518563ffffffff1660e01b815260040161017e949392919061099c565b600060405180830381600087803b15801561019857600080fd5b505af11580156101ac573d6000803e3d6000fd5b50505050600160009054906101000a900473ffffffffffffffffffffffffffffffffffffffff1673ffffffffffffffffffffffffffffffffffffffff166108fc349081150290604051600060405180830381858888f19350505050158015610218573d6000803e3d6000fd5b5050565b60008060009054906101000a900473ffffffffffffffffffffffffffffffffffffffff1673ffffffffffffffffffffffffffffffffffffffff166392976179836040518263ffffffff1660e01b815260040161027891906109f4565b602060405180830381865afa158015610295573d6000803e3d6000fd5b505050506040513d601f19601f820116820180604052508101906102b99190610a24565b905060035482036102ff576040517f08c379a00000000000000000000000000000000000000000000000000000000081526004016102f690610a9d565b60405180910390fd5b60008054906101000a900473ffffffffffffffffffffffffffffffffffffffff1673ffffffffffffffffffffffffffffffffffffffff16638da5cb5b6040518163ffffffff1660e01b8152600401602060405180830381865afa15801561036a573d6000803e3d6000fd5b505050506040513d601f19601f8201168201806040525081019061038e9190610ae9565b73ffffffffffffffffffffffffffffffffffffffff163373ffffffffffffffffffffffffffffffffffffffff16036103fb576040517f08c379a00000000000000000000000000000000000000000000000000000000081526004016103f290610b62565b60405180910390fd5b600160008054906101000a900473ffffffffffffffffffffffffffffffffffffffff1673ffffffffffffffffffffffffffffffffffffffff1662fdd58e600160009054906101000a900473ffffffffffffffffffffffffffffffffffffffff16856040518363ffffffff1660e01b815260040161047992919061093c565b602060405180830381865afa158015610496573d6000803e3d6000fd5b505050506040513d601f19601f820116820180604052508101906104ba9190610a24565b146104fa576040517f08c379a00000000000000000000000000000000000000000000000000000000081526004016104f190610bce565b60405180910390fd5b8060008054906101000a900473ffffffffffffffffffffffffffffffffffffffff1673ffffffffffffffffffffffffffffffffffffffff1662fdd58e336003546040518363ffffffff1660e01b815260040161055792919061093c565b602060405180830381865afa158015610574573d6000803e3d6000fd5b505050506040513d601f19601f820116820180604052508101906105989190610a24565b116105d8576040517f08c379a00000000000000000000000000000000000000000000000000000000081526004016105cf90610c3a565b60405180910390fd5b7fccc0714a22497a22dd0f50922822d7002a7f07860d62eaf2fd93608e140ce13e338360405161060992919061093c565b60405180910390a160008054906101000a900473ffffffffffffffffffffffffffffffffffffffff1673ffffffffffffffffffffffffffffffffffffffff1663f242432a600160009054906101000a900473ffffffffffffffffffffffffffffffffffffffff16338560016040518563ffffffff1660e01b81526004016106939493929190610c9f565b600060405180830381600087803b1580156106ad57600080fd5b505af11580156106c1573d6000803e3d6000fd5b5050505060008054906101000a900473ffffffffffffffffffffffffffffffffffffffff1673ffffffffffffffffffffffffffffffffffffffff1663f242432a33600160009054906101000a900473ffffffffffffffffffffffffffffffffffffffff16600354856040518563ffffffff1660e01b8152600401610748949392919061099c565b600060405180830381600087803b15801561076257600080fd5b505af1158015610776573d6000803e3d6000fd5b505050505050565b600080fd5b6000819050919050565b61079681610783565b81146107a157600080fd5b50565b6000813590506107b38161078d565b92915050565b6000602082840312156107cf576107ce61077e565b5b60006107dd848285016107a4565b91505092915050565b7f4e487b7100000000000000000000000000000000000000000000000000000000600052601160045260246000fd5b600061082082610783565b915061082b83610783565b9250817fffffffffffffffffffffffffffffffffffffffffffffffffffffffffffffffff0483118215151615610864576108636107e6565b5b828202905092915050565b600082825260208201905092915050565b7f496e636f72726563742121210000000000000000000000000000000000000000600082015250565b60006108b6600c8361086f565b91506108c182610880565b602082019050919050565b600060208201905081810360008301526108e5816108a9565b9050919050565b600073ffffffffffffffffffffffffffffffffffffffff82169050919050565b6000610917826108ec565b9050919050565b6109278161090c565b82525050565b61093681610783565b82525050565b6000604082019050610951600083018561091e565b61095e602083018461092d565b9392505050565b600082825260208201905092915050565b50565b6000610986600083610965565b915061099182610976565b600082019050919050565b600060a0820190506109b1600083018761091e565b6109be602083018661091e565b6109cb604083018561092d565b6109d8606083018461092d565b81810360808301526109e981610979565b905095945050505050565b6000602082019050610a09600083018461092d565b92915050565b600081519050610a1e8161078d565b92915050565b600060208284031215610a3a57610a3961077e565b5b6000610a4884828501610a0f565b91505092915050565b7f596f752063616e206f6e6c7920627579204974656d732e000000000000000000600082015250565b6000610a8760178361086f565b9150610a9282610a51565b602082019050919050565b60006020820190508181036000830152610ab681610a7a565b9050919050565b610ac68161090c565b8114610ad157600080fd5b50565b600081519050610ae381610abd565b92915050565b600060208284031215610aff57610afe61077e565b5b6000610b0d84828501610ad4565b91505092915050565b7f546865206f776e65722063616e2774206275792047616d654974656d21212100600082015250565b6000610b4c601f8361086f565b9150610b5782610b16565b602082019050919050565b60006020820190508181036000830152610b7b81610b3f565b9050919050565b7f5468657265206973206e6f204974656d20796f752077616e7421212100000000600082015250565b6000610bb8601c8361086f565b9150610bc382610b82565b602082019050919050565b60006020820190508181036000830152610be781610bab565b9050919050565b7f596f7520646f6e2774206861766520656e6f7567682047542e00000000000000600082015250565b6000610c2460198361086f565b9150610c2f82610bee565b602082019050919050565b60006020820190508181036000830152610c5381610c17565b9050919050565b6000819050919050565b6000819050919050565b6000610c89610c84610c7f84610c5a565b610c64565b610783565b9050919050565b610c9981610c6e565b82525050565b600060a082019050610cb4600083018761091e565b610cc1602083018661091e565b610cce604083018561092d565b610cdb6060830184610c90565b8181036080830152610cec81610979565b90509594505050505056fea2646970667358221220164b2e7489be099a36f424c0a164e8da2cf24d8dfdc670d52e55842ba81a119964736f6c634300080d0033",
  "immutableReferences": {},
  "source": "// SPDX-License-Identifier: MIT\npragma solidity >=0.4.21 <0.9.0;\n\nimport \"./GameItems.sol\";\n\ncontract ItemMarket{\n\n    GameItems gameItems;\n\n    address _owner = gameItems.owner();\n\n    uint rate = gameItems.getRate();\n    uint GT = gameItems.getTokenId();\n\n    event BuyNFT(address _buyer, uint _id);\n    event BuyGT(address _buyer, uint _amount);\n\n    constructor(address _user) {\n        gameItems = GameItems(_user);\n    }\n\n    function buyNFT(uint _id) public {\n\n        uint price = gameItems.getNFTPrice(_id);\n\n        require(_id != GT, \"You can only buy Items.\");\n        require(msg.sender != gameItems.owner(), \"The owner can't buy GameItem!!!\");\n        require(gameItems.balanceOf(_owner, _id) == 1, \"There is no Item you want!!!\");\n        require(gameItems.balanceOf(msg.sender, GT) > price, \"You don't have enough GT.\");\n\n        emit BuyNFT(msg.sender, _id);\n\n        gameItems.safeTransferFrom(_owner, msg.sender, _id, 1, \"\");\n        gameItems.safeTransferFrom(msg.sender, _owner, GT, price, \"\");\n    }\n\n    function buyGT(uint _amount) public payable{\n        \n        require(msg.value == _amount * rate, \"Incorrect!!!\");\n        \n        emit BuyGT(msg.sender, _amount);\n\n        gameItems.safeTransferFrom(_owner, msg.sender, GT, _amount, \"\");\n        payable(_owner).transfer(msg.value);\n    }\n}",
  "sourcePath": "/Volumes/DATA/Work/gameItemWithERC1155/contracts/ItemMarket.sol",
  "compiler": {
    "name": "solc",
    "version": "0.8.13+commit.abaa5c0e.Emscripten.clang"
  },
  "schemaVersion": "3.4.7",
  "updatedAt": "2022-04-27T09:24:13.443Z",
  "devdoc": {
    "kind": "dev",
    "methods": {},
    "version": 1
  },
  "userdoc": {
    "kind": "user",
    "methods": {},
    "version": 1
  }
}